S0150000636F6E7461646F7230306132392E7372656389
S11300000C9434000C9446000C9446000C94460066
S11300100C9446000C94C5000C9446000C944600C5
S11300200C9446000C9446000C9446000C94460034
S11300300C9446000C9446000C9446000C94460024
S11300400C9446000C9446000C9446000C94460014
S11300500C9446000C9446000C9446000C94460004
S11300600C9446000C94460011241FBECFEFD8E038
S1130070DEBFCDBF21E0A0E0B1E001C01D92A13000
S1130080B207E1F70E94BE000C9424010C94000016
S113009084B1806784B9089527E030E019C0482FFF
S11300A050E0022E02C0559547950A94E2F740FFAE
S11300B004C095B1906195B903C095B19F7E95B97F
S11300C095B1906295B995B19F7D95B9215031094B
S11300D033232CF785B1806485B985B18F7B85B9CD
S11300E008950F931F93CF93DF9300D0CDB7DEB75E
S11300F0909100018DEC989F912D112496959695E1
S11301009695998390910001989F812D112486954D
S113011086958695880F282F220F220F820F981B11
S11301209A8300E010E00BC0E1E0F0E0EC0FFD1F6B
S1130130E00FF11F80810E944C000F5F1F4F0230BF
S1130140110594F30F900F90DF91CF911F910F91B0
S113015008958AB18B7F8AB98BB18C608BB9E8E63C
S1130160F0E0808184608083EDE6F0E0808180614E
S11301708083808180628083789408950E944800FF
S11301800E94A9000E947100FDCF1F920F920FB62A
S11301900F9211245F936F937F938F939F93AF93E9
S11301A0BF938FE39CE90197F1F700C000004A99DF
S11301B00AC08091000190E001966EE170E00E9417
S11301C0FC00809300014B990BC0809100018823AF
S11301D021F080910001815001C08DE180930001E4
S11301E0BF91AF919F918F917F916F915F910F908C
S11301F00FBE0F901F90189597FB072E16F40094CE
S113020007D077FD09D00E94100107FC05D03EF409
S1130210909581959F4F0895709561957F4F0895AE
S1130220AA1BBB1B51E107C0AA1FBB1FA617B70718
S113023010F0A61BB70B881F991F5A95A9F7809534
S10F02409095BC01CD010895F894FFCF07
S9030000FC
