S0150000636F6E7461646F7230306132392E7372656389
S11300000C9434000C9451000C9451000C94510045
S11300100C9451000C94E1000C9451000C94510088
S11300200C9451000C9451000C9451000C94510008
S11300300C9451000C9451000C9451000C945100F8
S11300400C9451000C9451000C9451000C945100E8
S11300500C9451000C9451000C9451000C945100D8
S11300600C9451000C94510011241FBECFEFD8E022
S1130070DEBFCDBF11E0A0E0B1E0E4E8F2E002C0F1
S113008005900D92AA30B107D9F721E0AAE0B1E0BA
S113009001C01D92AB30B207E1F70E94D1000C946D
S11300A040010C94000084B1876084B9089527E06E
S11300B030E019C0482F50E0022E02C055954795F4
S11300C00A94E2F740FF04C095B1916095B903C06A
S11300D095B19E7F95B995B1926095B995B19D7F83
S11300E095B92150310933232CF785B1846085B942
S11300F085B18B7F85B908950F931F93CF93DF93B9
S113010000D0CDB7DEB7E0910A018DECE89FE12D78
S11301101124E695E695E695F0E0E050FF4F9081D6
S11301209983E0910A01E89F812D11248695869593
S11301308695880F982F990F990F890FE81BF0E087
S1130140E050FF4F80818A8300E010E00BC0E1E0C3
S1130150F0E0EC0FFD1FE00FF11F80810E945700BB
S11301600F5F1F4F0230110594F30F900F90DF9132
S1130170CF911F910F9108958AB18F7C8AB98BB169
S113018080638BB9E8E6F0E0808184608083EDE6EB
S1130190F0E08081806180838081806280837894B4
S11301A008950E9453000E94BC000E947C002FEF1F
S11301B080E792E0215080409040E1F700C00000C9
S11301C0F4CF1F920F920FB60F9211245F936F9387
S11301D07F938F939F93AF93BF938FE19EE4019797
S11301E0F1F700C000004C990AC080910A0190E028
S11301F001966EE170E00E94180180930A014D9906
S11302000BC080910A01882321F080910A0181505A
S113021001C08DE180930A01BF91AF919F918F91AD
S11302207F916F915F910F900FBE0F901F90189563
S113023097FB072E16F4009407D077FD09D00E948F
S11302402C0107FC05D03EF4909581959F4F0895AD
S1130250709561957F4F0895AA1BBB1B51E107C0A0
S1130260AA1FBB1FA617B70710F0A61BB70B881F42
S1130270991F5A95A9F780959095BC01CD010895D1
S1070280F894FFCF1C
S10D0284C0F9A4B0999282F88090AA
S9030000FC
